{
  "contractName": "Charging",
  "abi": [
    {
      "constant": true,
      "inputs": [],
      "name": "name",
      "outputs": [
        {
          "name": "",
          "type": "string"
        }
      ],
      "payable": false,
      "stateMutability": "view",
      "type": "function",
      "signature": "0x06fdde03"
    },
    {
      "constant": true,
      "inputs": [
        {
          "name": "",
          "type": "uint256"
        }
      ],
      "name": "stations",
      "outputs": [
        {
          "name": "id",
          "type": "uint256"
        },
        {
          "name": "name",
          "type": "string"
        },
        {
          "name": "price",
          "type": "uint256"
        },
        {
          "name": "owner",
          "type": "address"
        },
        {
          "name": "purchased",
          "type": "bool"
        }
      ],
      "payable": false,
      "stateMutability": "view",
      "type": "function",
      "signature": "0x92f859db"
    },
    {
      "constant": true,
      "inputs": [],
      "name": "stationCount",
      "outputs": [
        {
          "name": "",
          "type": "uint256"
        }
      ],
      "payable": false,
      "stateMutability": "view",
      "type": "function",
      "signature": "0xda36d3db"
    },
    {
      "inputs": [],
      "payable": false,
      "stateMutability": "nonpayable",
      "type": "constructor",
      "signature": "constructor"
    },
    {
      "anonymous": false,
      "inputs": [
        {
          "indexed": false,
          "name": "id",
          "type": "uint256"
        },
        {
          "indexed": false,
          "name": "name",
          "type": "string"
        },
        {
          "indexed": false,
          "name": "price",
          "type": "uint256"
        },
        {
          "indexed": false,
          "name": "owner",
          "type": "address"
        },
        {
          "indexed": false,
          "name": "purchased",
          "type": "bool"
        }
      ],
      "name": "stationCreated",
      "type": "event",
      "signature": "0xace0ca47634c8be0f07168fa7a2bfda600492875cfc081b5b7ba4326baf05193"
    },
    {
      "anonymous": false,
      "inputs": [
        {
          "indexed": false,
          "name": "id",
          "type": "uint256"
        },
        {
          "indexed": false,
          "name": "name",
          "type": "string"
        },
        {
          "indexed": false,
          "name": "price",
          "type": "uint256"
        },
        {
          "indexed": false,
          "name": "owner",
          "type": "address"
        },
        {
          "indexed": false,
          "name": "purchased",
          "type": "bool"
        }
      ],
      "name": "gaspurchased",
      "type": "event",
      "signature": "0xe1f58035c42c7bc90e44bb5a6cba0932a5602869f0b8bcb41e6bfe9789af171c"
    },
    {
      "constant": false,
      "inputs": [
        {
          "name": "_name",
          "type": "string"
        },
        {
          "name": "_price",
          "type": "uint256"
        }
      ],
      "name": "createStation",
      "outputs": [],
      "payable": false,
      "stateMutability": "nonpayable",
      "type": "function",
      "signature": "0x700131cd"
    },
    {
      "constant": false,
      "inputs": [
        {
          "name": "_id",
          "type": "uint256"
        }
      ],
      "name": "purchasegas",
      "outputs": [],
      "payable": true,
      "stateMutability": "payable",
      "type": "function",
      "signature": "0xd5deed8f"
    }
  ],
  "bytecode": "0x6080604052600060015534801561001557600080fd5b506040805190810160405280600d81526020017f6368617267696e6720646170700000000000000000000000000000000000000081525060009080519060200190610061929190610067565b5061010c565b828054600181600116156101000203166002900490600052602060002090601f016020900481019282601f106100a857805160ff19168380011785556100d6565b828001600101855582156100d6579182015b828111156100d55782518255916020019190600101906100ba565b5b5090506100e391906100e7565b5090565b61010991905b808211156101055760008160009055506001016100ed565b5090565b90565b610b1c8061011b6000396000f3fe60806040526004361061006d576000357c0100000000000000000000000000000000000000000000000000000000900463ffffffff16806306fdde0314610072578063700131cd1461010257806392f859db146101d4578063d5deed8f146102d4578063da36d3db14610302575b600080fd5b34801561007e57600080fd5b5061008761032d565b6040518080602001828103825283818151815260200191508051906020019080838360005b838110156100c75780820151818401526020810190506100ac565b50505050905090810190601f1680156100f45780820380516001836020036101000a031916815260200191505b509250505060405180910390f35b34801561010e57600080fd5b506101d26004803603604081101561012557600080fd5b810190808035906020019064010000000081111561014257600080fd5b82018360208201111561015457600080fd5b8035906020019184600183028401116401000000008311171561017657600080fd5b91908080601f016020809104026020016040519081016040528093929190818152602001838380828437600081840152601f19601f820116905080830192505050505050509192919290803590602001909291905050506103cb565b005b3480156101e057600080fd5b5061020d600480360360208110156101f757600080fd5b81019080803590602001909291905050506105e2565b60405180868152602001806020018581526020018473ffffffffffffffffffffffffffffffffffffffff1673ffffffffffffffffffffffffffffffffffffffff16815260200183151515158152602001828103825286818151815260200191508051906020019080838360005b8381101561029557808201518184015260208101905061027a565b50505050905090810190601f1680156102c25780820380516001836020036101000a031916815260200191505b50965050505050505060405180910390f35b610300600480360360208110156102ea57600080fd5b81019080803590602001909291905050506106dd565b005b34801561030e57600080fd5b506103176109fd565b6040518082815260200191505060405180910390f35b60008054600181600116156101000203166002900480601f0160208091040260200160405190810160405280929190818152602001828054600181600116156101000203166002900480156103c35780601f10610398576101008083540402835291602001916103c3565b820191906000526020600020905b8154815290600101906020018083116103a657829003601f168201915b505050505081565b600082511115156103db57600080fd5b6000811115156103ea57600080fd5b60016000815480929190600101919050555060a06040519081016040528060015481526020018381526020018281526020013373ffffffffffffffffffffffffffffffffffffffff1681526020016000151581525060026000600154815260200190815260200160002060008201518160000155602082015181600101908051906020019061047a929190610a03565b506040820151816002015560608201518160030160006101000a81548173ffffffffffffffffffffffffffffffffffffffff021916908373ffffffffffffffffffffffffffffffffffffffff16021790555060808201518160030160146101000a81548160ff0219169083151502179055509050507face0ca47634c8be0f07168fa7a2bfda600492875cfc081b5b7ba4326baf05193600154838333600060405180868152602001806020018581526020018473ffffffffffffffffffffffffffffffffffffffff1673ffffffffffffffffffffffffffffffffffffffff16815260200183151515158152602001828103825286818151815260200191508051906020019080838360005b838110156105a0578082015181840152602081019050610585565b50505050905090810190601f1680156105cd5780820380516001836020036101000a031916815260200191505b50965050505050505060405180910390a15050565b6002602052806000526040600020600091509050806000015490806001018054600181600116156101000203166002900480601f0160208091040260200160405190810160405280929190818152602001828054600181600116156101000203166002900480156106945780601f1061066957610100808354040283529160200191610694565b820191906000526020600020905b81548152906001019060200180831161067757829003601f168201915b5050505050908060020154908060030160009054906101000a900473ffffffffffffffffffffffffffffffffffffffff16908060030160149054906101000a900460ff16905085565b6106e5610a83565b6002600083815260200190815260200160002060a0604051908101604052908160008201548152602001600182018054600181600116156101000203166002900480601f0160208091040260200160405190810160405280929190818152602001828054600181600116156101000203166002900480156107a75780601f1061077c576101008083540402835291602001916107a7565b820191906000526020600020905b81548152906001019060200180831161078a57829003601f168201915b50505050508152602001600282015481526020016003820160009054906101000a900473ffffffffffffffffffffffffffffffffffffffff1673ffffffffffffffffffffffffffffffffffffffff1673ffffffffffffffffffffffffffffffffffffffff1681526020016003820160149054906101000a900460ff1615151515815250509050600081606001519050600082600001511180156108505750600154826000015111155b151561085b57600080fd5b8160400151341015151561086e57600080fd5b3373ffffffffffffffffffffffffffffffffffffffff168173ffffffffffffffffffffffffffffffffffffffff16141515156108a957600080fd5b60018260800190151590811515815250508073ffffffffffffffffffffffffffffffffffffffff166108fc349081150290604051600060405180830381858888f19350505050158015610900573d6000803e3d6000fd5b507fe1f58035c42c7bc90e44bb5a6cba0932a5602869f0b8bcb41e6bfe9789af171c6001548360200151846040015133600160405180868152602001806020018581526020018473ffffffffffffffffffffffffffffffffffffffff1673ffffffffffffffffffffffffffffffffffffffff16815260200183151515158152602001828103825286818151815260200191508051906020019080838360005b838110156109ba57808201518184015260208101905061099f565b50505050905090810190601f1680156109e75780820380516001836020036101000a031916815260200191505b50965050505050505060405180910390a1505050565b60015481565b828054600181600116156101000203166002900490600052602060002090601f016020900481019282601f10610a4457805160ff1916838001178555610a72565b82800160010185558215610a72579182015b82811115610a71578251825591602001919060010190610a56565b5b509050610a7f9190610acb565b5090565b60a060405190810160405280600081526020016060815260200160008152602001600073ffffffffffffffffffffffffffffffffffffffff1681526020016000151581525090565b610aed91905b80821115610ae9576000816000905550600101610ad1565b5090565b9056fea165627a7a7230582016ddc8ae105f2d66124d635dfa195cfc2a9b33724d80a865b8342bbc67bf0f510029",
  "source": "pragma solidity  ^0.5.0;\r\n\r\ncontract Charging {\r\n    string public name;\r\n    uint public stationCount = 0;\r\n    mapping(uint => Station) public stations;\r\n\r\n    struct Station{\r\n        uint id;\r\n        string name;\r\n        uint price;\r\n        address payable owner;\r\n        bool purchased;\r\n    }\r\n\r\n    event stationCreated(\r\n        uint id,\r\n        string name,\r\n        uint price,\r\n        address payable owner,\r\n        bool purchased\r\n    );\r\n\r\n    event gaspurchased(\r\n        uint id,\r\n        string name,\r\n        uint price,\r\n        address payable owner,\r\n        bool purchased\r\n    );\r\n\r\n    constructor() public {\r\n        name =\"charging dapp\";\r\n    }\r\n\r\n    function createStation(string memory _name, uint _price) public {\r\n\r\n        require(bytes(_name).length > 0);\r\n        require(_price > 0);\r\n\r\n        stationCount ++;\r\n        stations[stationCount]= Station(stationCount,_name,_price,msg.sender,false);\r\n\r\n        emit stationCreated(stationCount,_name,_price, msg.sender,false);\r\n    }\r\n\r\n    function purchasegas(uint _id)public payable{\r\n        \r\n    Station memory _station = stations[_id];\r\n\r\n    address payable _seller = _station.owner;\r\n\r\n    require(_station.id>0 && _station.id <= stationCount);\r\n\r\n    require(msg.value >= _station.price);\r\n\r\n    require(_seller != msg.sender);\r\n\r\n    _station.purchased = true;\r\n\r\n    address(_seller).transfer(msg.value);\r\n\r\n    emit gaspurchased(stationCount,_station.name,_station.price, msg.sender,true);\r\n\r\n    }\r\n\r\n}",
  "sourcePath": "C:/Users/Punith/OneDrive/Documents/charging dapp/charging coordination/src/contracts/Charging.sol",
  "compiler": {
    "name": "solc",
    "version": "0.5.0+commit.1d4f565a.Emscripten.clang"
  },
  "schemaVersion": "3.0.2",
  "updatedAt": "2023-05-21T14:36:34.946Z",
  "devdoc": {
    "methods": {}
  },
  "userdoc": {
    "methods": {}
  }
}